:020000040800F2
:1000000000200020C5020008B9020008BB02000859
:1000100000000000000000000000000000000000E0
:10002000000000000000000000000000BD02000809
:100030000000000000000000BF020008C10200082C
:100040001503000815030008150300081503000830
:100050001503000815030008150300081503000820
:100060000000000015030008150300081503000830
:100070001503000815030008150300081503000800
:1000800015030008150300081503000815030008F0
:100090000000000015030008150300081503000800
:1000A00015030008150300081503000815030008D0
:0C00B00015030008150300080000000004
:020000040801F1
:1000000000200020C5020008B9020008BB02000859
:1000100000000000000000000000000000000000E0
:10002000000000000000000000000000BD02000809
:100030000000000000000000BF020008C10200082C
:100040001503000815030008150300081503000830
:100050001503000815030008150300081503000820
:100060000000000015030008150300081503000830
:100070001503000815030008150300081503000800
:1000800015030008150300081503000815030008F0
:100090000000000015030008150300081503000800
:1000A00015030008150300081503000815030008D0
:04000005080002C528
:00000001FF
