:020000040800F2
:1000000000200020C5020008B9020008BB02000859
:1000100000000000000000000000000000000000E0
:10002000000000000000000000000000BD02000809
:100030000000000000000000BF020008C10200082C
:100040001503000815030008150300081503000830
:100050001503000815030008150300081503000820
:100060000000000015030008150300081503000830
:100070001503000815030008150300081503000800
:1000800015030008150300081503000815030008F0
:100090000000000015030008150300081503000800
:1000A00015030008150300081503000815030008D0
:0C00B00015030008150300080000000004
:1000BC0010B5064C2378002B07D1054B002B02D032
:1000CC00044800E000BF0123237010BD0400002091
:1000DC00000000008C030008044B10B5002B03D06B
:1000EC000349044800E000BF10BDC04600000000FA
:1000FC00080000208C030008002243088B4274D3B4
:10010C0003098B425FD3030A8B4244D3030B8B420C
:10011C0028D3030C8B420DD3FF22090212BA030C15
:10012C008B4202D31212090265D0030B8B4219D3F6
:10013C0000E0090AC30B8B4201D3CB03C01A524116
:10014C00830B8B4201D38B03C01A5241430B8B425E
:10015C0001D34B03C01A5241030B8B4201D30B0347
:10016C00C01A5241C30A8B4201D3CB02C01A52416E
:10017C00830A8B4201D38B02C01A5241430A8B4231
:10018C0001D34B02C01A5241030A8B4201D30B021A
:10019C00C01A5241CDD2C3098B4201D3CB01C01A34
:1001AC00524183098B4201D38B01C01A524143093E
:1001BC008B4201D34B01C01A524103098B4201D32C
:1001CC000B01C01A5241C3088B4201D3CB00C01A99
:1001DC00524183088B4201D38B00C01A5241430811
:1001EC008B4201D34B00C01A5241411A00D2014636
:1001FC00524110467047FFE701B5002000F006F8A9
:10020C0002BDC0460029F7D076E770477047C0465C
:10021C008022114B5200196810B50A431A608022D3
:10022C00D20019681142FCD09A680C490A40072187
:10023C009A609A688A439A60382299681142FCD174
:10024C009A68074907480A409A6000F05FF8054829
:10025C0000F06CF810BDC04600100240FFF0FFFF2C
:10026C00FF8FFFFF0024F40007B501210D4B1A6C22
:10027C000A431A641A6C0A4080210192019ADA6BC3
:10028C0049050A43DA63C022DB6B12060B400649B0
:10029C000093009B0B6A1B021B0A13430B62FFF7B4
:1002AC00B7FFFEE70010024000ED00E0FEE7FEE7BE
:1002BC0070477047704770470D488546FFF7FBFF46
:1002CC000C480D490D4A002302E0D458C4500433A5
:1002DC00C4188C42F9D30A4A0A4C002301E013607B
:1002EC000432A242FBD300F027F8FFF7BDFFFEE774
:1002FC00002000200000002004000020AC030008B7
:10030C000400002020000020FEE70000FA2110B5B8
:10031C008900FFF7F1FE0022034B013858609A6008
:10032C0005321A6010BDC04610E000E0014B1860A9
:10033C007047C0460000002070B500260C4C0D4DD7
:10034C00641BA410A64209D1002600F019F80A4C2F
:10035C000A4D641BA410A64205D170BDB300EB5826
:10036C0098470136EEE7B300EB5898470136F2E7B1
:10037C00A4030008A4030008A8030008A4030008B1
:10038C00F8B5C046F8BC08BC9E467047F8B5C046E8
:08039C00F8BC08BC9E46704746
:0403A400E500000868
:0403A800BD0000088C
:0403AC000024F40035
:04000005080002C528
:00000001FF
